:100000000C944C060C945B070C9474060C947406C8
:100010000C9474060C9474060C944C070C9474069F
:100020000C9474060C9474060C9474060C94760666
:100030000C949F060C9474060C9474060C9474062D
:100040000C9474060C9474060C9474060C94740648
:100050000C9474069F2D00000000030000000000B7
:1000600000000000000000000000000000C00300CD
:100070000000000000000000000000000000000080
:1000800000F8010000000000000000000000000077
:100090000000000000FE0000000000000000000062
:1000A0000000000000800100003F00000000000090
:1000B000000000000000000000C00700C01F000F8B
:1000C00000000000000000000000000000F00F0031
:1000D000F00F800F00000000000000000000000092
:1000E00000F81F00F803C007000000000000000037
:1000F0000000000000FC7F00FE01E00300000000A3
:10010000000000000000000000FEFF807F40E001D2
:1001100000000000000000000000000000FEFFC121
:100120003F60F00000000000000000000000000040
:1001300000FCFFF70F307800000000000000000016
:100140000000000000FCFFFF03187C00000000001E
:10015000000000000000000000FCFFFF010C3E005A
:1001600000000000000000000000000000FCFFFF95
:1001700018061F0000000000000000000000000042
:1001800000F8FFFF0F830F000000000000000000D8
:100190000000000000F8FFFF9FC107000000000002
:1001A000000000000000000000F8FFFFFFE1030076
:1001B00000000000000000000000000000F0FFFF51
:1001C000FFF301000000000000000000000000003C
:1001D00000F0FFFFFFFB0000000000000000000037
:1001E0000000000000F0FFFFFF7D000000000000A5
:1001F000000000000000000000F0FFFF7F1E000074
:1002000000000000000000000000000000F8FFFFF8
:100210003F0F000000000000000000000000000090
:1002200000FCE0FFCF871FFC800F1F7C7C808F0FBE
:100230001E1F7E003C3F80C1E0C30F7EE0870F3E63
:100240003FC0C7078F8F1F00FF0F7030F0E0873F60
:10025000F083878F1FE0E3C7C7E70780FF071F1CF6
:100260007CF8C30FFCC1C3C707F0F9E3E3FB0080D0
:10027000FFC703063EFCF107FFE0F3E103F8FCF3E0
:10028000F13F0080FF0F80810FFEF983FFF0F9F04E
:10029000013EFEF9FC0F0080FF07F0C007FFFEE102
:1002A0007BF83C7C001FFF3DFE070080FF013CF017
:1002B000837FFFF03C7C1F3E808FFF1FFF07008085
:1002C0007F8007FCC0FF7F7C1EBC071FC0C7FB8F61
:1002D000FF03000000F8013FE0FD1E1E0FFE810F2E
:1002E000E0F3F9C7FF030000003FC01FF87E8FFF57
:1002F0000FFFC007F8F8FCE3F30100008003F007EC
:100300003C9FC7FF873FF0037C7CFCF8F8010000AE
:100310000000FE019ECFF3FFC31FF87F3E3E7E7CB0
:10032000FC00000000807F00CFF379F0E107FC3F84
:100330001F1F3E3EFC00000000F01F80E7F93EF06A
:10034000E003FE9F8F071F1F7E00000000FE0300DA
:10035000000000000000000000000000000000009D
:10036000E0FF0000000000000000000000000000AE
:1003700000000000FE1F0000000000000000000060
:100380000000000000000080FF03000000000000EB
:100390000000000000000000000000807F0000005E
:1003A000000000000000000000000000000000C08D
:1003B0000F0000000000000000000000000000002E
:1003C000000000E00000000000000000000000004D
:1003D00000000000002D1D00000000E000000000F3
:1003E000001C0000000080030000000070E0FFFF20
:1003F000FFFFFFFDFFFFFFFFBFFFFFFFFFFFF7FF57
:10040000FFFFFFFF1E0000F0FFDF030000FEFF7B89
:100410000000C0FF7F0F0000F8FFEF1100107FFE0B
:100420003D0200E2CFBF470040FCFFF7080088E72D
:10043000F91EFD7EF13CDF230020FEFF7B0400C49B
:100440009F7F8F0080F8F3EF110010FFFF3D000049
:10045000E0FFBF0700009C9FF7000080F3F3FEFF62
:10046000FFFFFFDFFFFFFFFFFFFBFFFFFFFF7FFF40
:10047000FFFFFFFFEFFFFFFFFFFF01242400000E3F
:10048000000000E0000000000E000000E00000009E
:10049000000E000000E0000000000E000006E0007A
:1004A0000060FEFF0700E6FF7F0060FEFF07F0FF31
:1004B000FFFFFFFFFFFFFFFFFFFFFFFFFFFFFFFF4C
:1004C000FFFFFFFFFF7FFFFFDFFFF7FFFFFD7FFF66
:1004D000FFDFFF80FF3FE07FFFFFDFFFF7FFFFFD54
:1004E0007FFFFFDFFFFFFFFFFFFFFFFFFFFFFFFFBC
:1004F000FFFFFF0700F4FF7F00C0FFFF0700F4FFCE
:100500007F00C0FFFF0700F4FF7F00C0FFFF070070
:10051000F4FFFFFFFFFFFFFFFFFFFFFFFFFFFF24D1
:100520002200801F000000F8010000801F0000185A
:10053000F88101C0C33F3C007EFEE707F0FFFFFFEC
:1005400000FFFFFF0FE0FFFF7F00FC07FE03801F9F
:100550008F1F00F8FCF301C0E77F3E007EFFEF072E
:10056000FEF3F9FCE7BF0FDF7FFE7BE0FDE7BF078F
:10057000DE7FFEFBF0FDE73F9FCF7FE0F7FF7E00D1
:100580007CFEE70380CF3F1F00F8F1F801C07FE059
:100590003F00FEFFFF07F0FFFFFF00FFFFFF0FE040
:1005A000E77F7E003CFCC30380811F180000F80138
:1005B0000000801F000000F801002420000000FF60
:1005C0000F000030C000000E030C00FE30C000F031
:1005D0001F030C80FFF1FF00FC3F6000E0FF831F62
:1005E00000FF0F0000F07F000080FF030000F81FF5
:1005F0000000C0FF010000FC0F0018E3FF00E071E5
:10060000FE07803FFE7F00FEE3FF03E03FFE3F006A
:10061000FCC3FF01007FFC1F00F0C7FF01807FF8D3
:100620001F00F88FFF0180FFF87F00FC09FF0FE03B
:100630000FF0FF01FF00FF07F807E03FE07F00FE3B
:1006400000FE03E003C01F000C007800241E00C061
:10065000FFFF0100FCFF1F00C0FFFF0100FCFF1FA8
:1006600000C0FFFF010080FF000000F80F000080C5
:10067000FF000000F80FF0FFFFFFFFFFFFFFFFFF8D
:10068000FFFFFFFFFFFFFFFFFFFFFFFFFFF0FFFF89
:10069000FF00FFFFFF0FF0FFFFFF00FFFFFF0FF066
:1006A000FFFFFF00FFFFFF0FF0FFFFFF00FFFFFF57
:1006B0000FF0FFFFFF00FFFFFF0FF0FFFFFF00FF46
:1006C000FFFF0FF0FFFFFF00FFFFFF0FF0FFFFFF37
:1006D00000FFFFFF0F241AFFFFFFFFFFFFFFFFFFD9
:1006E000FFFFFFFF7F000000E0070000007E00002A
:1006F00000E0078001007E003C00E007E007007E8C
:1007000000DB00E0078001007E001800E007808128
:10071000017E001830E0079F01067E80F9FFE007A8
:100720008CFF0F7E600060E0070600037EF001187A
:10073000E0070000007E000000E007000000FEFF70
:10074000FFFFFFFFFFFFFFFFFFFFFFFF242200006F
:100750000030000000000300000030000000000333
:100760000000003000000000030000003000000026
:100770008007FFFFFFFFFFFFFFFFFFFFFFFFFFFF00
:10078000FFFFFFFFFFFFFFFFFFFFFFFFFF0700F07F
:10079000C77FC7717FFC0700F0C77FC001FFFF174D
:1007A00000747C7C0140C7C71700747C7C0140FF4B
:1007B000FFD7FFF5C77F01407FFC1700F4C77F011B
:1007C00040FFFF97D9747C7C0000C7C70700707C8E
:1007D000FCFFFFFFFFFFFFFFFFFFFFFFFFFFFFFF2C
:1007E000FFFFFFFFFFFFFF241DFEFFFFFFF7FFFFDF
:1007F000FFFFFFFFFFFFFFFFFFFFFFFFFFFFFFFF09
:10080000FFFFFFFFFFFFFFFFFFFFFFFFFFFFFFFFF8
:10081000FFEFFFFFFF7F0000E00F0000007C000003
:1008200000C00700FFFFFF070800C0878000007CB2
:10083000080800FC9F8000406C094802C4978000B3
:100840004000090800FC9F800000000808000080AC
:1008500000FFFFFF0700E0BF070000FE7B0000E095
:100860003F000000FC010000C01F00002424000025
:1008700007000000F8000000800F000000F80000F2
:1008800000800F00001CF8C001E0830F3E003FF81D
:10089000E007F0830F7E801FF8C00FFC800FF8C1C7
:1008A00007F8001F7E800FF0E303F8003E3E800F44
:1008B000E0E301F8003C1F800FC0F701F8007C1F47
:1008C0000007C0F70100007C1F0000C0E701000026
:1008D0003C3E0000E0E30300003E7E0000F0C30762
:1008E00000001FFC0000F8811F00C00FF003007E15
:1008F00000FF00F807E03FE03F00FCFFFF0100FFC2
:10090000FF0700E0FF3F0000F8FF000000F80000D4
:100910000C0F0E16634131084361221CC2413C0496
:100920004FD0030138C007FE000C0EFC201002213E
:100930001002212002246002224002244002C43F0F
:10094000242300E03F0000C0FF1F0000FFFF07005E
:10095000F88FFF00C00F801F003E00E003F0010091
:100960007C800F00800F7C3CE0F1C1C3031E1E1E83
:100970003CE0C1E3C1031E3C0E3CE081F3C0031E1A
:10098000780F3CE081F7C0FF1F7807FCFF0177C0BC
:10099000FF1F7007FCFF01F7C0031E780F3CE081CA
:1009A000F7C0031E780E3CE081E3C1031E3C1E3CF1
:1009B000E0C1C3C3031E1E7C3CE0F1810F00800F29
:1009C000F001007C003E00E003C00F801F00F88FA4
:1009D000FF0000FFFF0700C0FF1F0000E03F000016
:1009E0002A240000F001000000FC7F000000FCFF52
:1009F000070000F8FF3F0000F8FFFF0300F07FFC56
:100A00001F00E01F00FF00803F00F803003F008050
:100A10001F007E0000FC00F80100F003F0030080DE
:100A20001FC00700007C001F0000F0013E0000C056
:100A3000C7FF3F00003FFE7F0000F8F0FF0000E02E
:100A400083FF0100800FFC0300003FE00700007CF3
:100A5000000F0000F001180000C007000000801F18
:100A6000000000003F00000000FC00000200F80150
:100A7000003C00F80300F801F00F00F07FFC1F00BD
:100A800080FFFF3F0000F8FF3F0000C0FF7F000035
:100A900000FC7F000000001F0000000000000000BC
:100AA0000005072063000000000000005F00000058
:100AB00007000700147F147F14242A7F2A122313AF
:100AC00008646236495522500005030000001C22CC
:100AD00041000041221C00082A1C2A0808083E0880
:100AE0000800503000000808080808006060000096
:100AF00020100804023E5149453E00427F4000421A
:100B0000615149462141454B311814127F10274548
:100B10004545393C4A49493001710905033649497F
:100B20004936064949291E0036360000005636006F
:100B30000000081422411414141414412214080053
:100B40000201510906324979413E7E1111117E7F21
:100B5000494949363E414141227F4141221C7F495A
:100B60004949417F090901013E414151327F08084D
:100B7000087F00417F41002040413F017F0814224F
:100B8000417F404040407F0204027F7F0408107F85
:100B90003E4141413E7F090909063E4151215E7FA8
:100BA00009192946464949493101017F01013F4060
:100BB00040403F1F2040201F7F2018207F631408E3
:100BC00014630304780403615149454300007F41E5
:100BD00041020408102041417F0000040201020488
:100BE0004040404040000102040020545454787FAB
:100BF000484444383844444420384444487F3854B6
:100C0000545418087E090102081454543C7F080407
:100C1000047800447D40002040443D00007F1028BF
:100C20004400417F40007C041804787C0804047868
:100C300038444444387C14141408081414187C7C78
:100C4000080404084854545420043F4440203C40C5
:100C500040207C1C2040201C3C4030403C4428105C
:100C600028440C5050503C4464544C4400083641D5
:100C70000000007F0000004136080008082A1C0818
:100C8000081C2A080806090906007F3E1C08007F88
:100C9000221408008C070D1111241FBECFE5D4E0EB
:100CA000DEBFCDBF10E0A0E6B0E0ECE5F5E202C0AB
:100CB00005900D92AA39B107D9F712E0AAE9B0E080
:100CC00001C01D92A431B107E1F71CE0C8E9DCE0E6
:100CD00004C02297FE010E948112C439D107C9F7CE
:100CE0000E94D0090C94AC120C9400001F920F9239
:100CF0000FB60F9211242F938F939F93EF93FF932F
:100D00009BB12CB1E091AC01EF5F8091AD01E81790
:100D100011F482E008C0892F8871E093AC01F0E003
:100D2000E655FF4F20838093AE01FF91EF919F9195
:100D30008F912F910F900FBE0F901F9018951F92BB
:100D40000F920FB60F9211248F939F93EF93FF93FF
:100D50009091AA018091AB01981761F0E091AB01ED
:100D6000EF5FEF70E093AB01F0E0E656FF4F80815C
:100D70008CB901C05598FF91EF919F918F910F9081
:100D80000FBE0F901F9018959C011092AA0110920F
:100D9000AB011092AC011092AD0197FF03C082E04D
:100DA0008BB93F7730BD29B988E98AB986E880BD1B
:100DB00008959091AC018091AD01981719F420E04D
:100DC00031E011C0E091AD01EF5FE093AD01F0E0E3
:100DD000E655FF4F30812091AE01922F80E0AC01AB
:100DE000430F511D9A01C90108959091AC01809162
:100DF000AD019817D1F3E091AD01EF5FE093AD0144
:100E0000F0E0E655FF4F80810895282F9091AA01C8
:100E10009F5F9F708091AB019817E1F3E92FF0E09D
:100E2000E656FF4F20839093AA01559A0895CF93D9
:100E3000DF93EC0103C021960E9405078881882377
:100E4000D1F7DF91CF910895CF93DF93EC0102C0EA
:100E50000E940507FE01219684918823C9F7DF913E
:100E6000CF9108958091AC019091AD01891B0895B7
:100E70008091AD018093AC010895AB9880E090E043
:100E800000000000000000000000000001968F3FFD
:100E90009105B1F7AB9A08951F920F920FB60F927A
:100EA00011248F9381E08093AF018F910F900FBE3B
:100EB0000F901F9018951F920F920FB60F9211244A
:100EC0002F933F934F935F936F937F938F939F9352
:100ED000AF93BF93EF93FF938091B001823019F4E9
:100EE000829909C0FFCF8091B001813021F48299AD
:100EF00002C00E943D07FF91EF91BF91AF919F917A
:100F00008F917F916F915F914F913F912F910F90B2
:100F10000FBE0F901F90189588E990E09093F7010D
:100F20008093F6011092F8011092F9011092FA01E3
:100F30001092FB0185E097E09093FD018093FC0106
:100F40000895CF92DF92EF920F9385E0C82E82E052
:100F5000D82EC60164E570E040E021E00E94D90F80
:100F6000C60165ED73E049E322E60E94D90FC60190
:100F700060E54DE222E00FE0EE240E94300DC60154
:100F800060E540E522E00E94300D0F91EF90DF9088
:100F9000CF900895EF920F931F93DF93CF930F920B
:100FA000CDB7DEB78091B501803109F4FDC0813144
:100FB00058F5893009F49CC08A3098F4853009F4DA
:100FC00073C0863038F4813009F44EC0823009F0A5
:100FD00088C148C0873009F475C0883008F07DC0EA
:100FE0006CC08C3009F4ADC08D3038F48A3009F40F
:100FF0008CC08B3009F075C195C08E3009F4BBC030
:101000008F3008F0C3C0ACC0873109F425C18831E6
:1010100098F4833109F4F8C0843138F4813109F44B
:10102000D2C0823109F05DC1DDC0853109F4F5C05F
:10103000863108F0F8C0EBC08A3109F431C18B3138
:1010400038F4883109F40EC1893109F04AC121C14F
:10105000803609F42EC18E3F09F43BC1883209F075
:1010600040C132C110E01BC010E00AC0E12FF0E027
:10107000ED54FE4F85E092E063810E944A0B1F5FB2
:101080008091B301181790F32CC1E12FF0E0ED54DB
:10109000FE4F85E092E063810E944F0B1F5F8091BD
:1010A000B301181790F31DC19091B7018091B6015B
:1010B000809305029093060214C185E092E00E949D
:1010C0004D0D0FC185E092E06091B6014091B701EE
:1010D0002091B8010E94F00C04C185E092E060917B
:1010E000B6014091B7012091B8010E94FB0CF9C0F4
:1010F00085E092E06091B6014091B7012091B8017E
:101100000091B9010E94C10EECC085E092E06091AF
:10111000B6014091B7012091B8010091B9010E9438
:10112000080DDFC085E092E06091B6014091B70103
:101130002091B8010091B901E090BA010E94300DF0
:10114000D0C085E092E06091B6014091B701209156
:10115000B8010091B901E090BA010E94D40DC1C05C
:1011600085E092E06091B6014091B7012091B8010D
:101170000E94B00EB6C085E092E06091B601409149
:10118000B7012091B8010E94650FABC00091B30177
:10119000025085E092E06091B6014091B70128EBE2
:1011A00031E00E941C119DC085E092E06091B60183
:1011B0004091B7012091B8010091B901E090BA01C6
:1011C0000E94C60C8EC085E092E06091B60140910D
:1011D000B7012091B8010091B901E090BA010E94D5
:1011E0009C0C7FC0E091B801F0E0EE0FFF1FEE58BD
:1011F000FF4F6081718185E092E04091B6012091BE
:10120000B7010E94D90F6DC00E94A1076AC08091EA
:10121000B6018093020283BD64C086EF91E064E171
:1012200042E052E04FC01091B6011093010285E0F8
:1012300092E061E80E944A0B85E092E0612F0E94F3
:101240004F0B1295169516951370146085E092E079
:10125000612F0E944F0B45C086EF91E066E141E0AF
:1012600052E030C08091B6019091B7019093040292
:101270008093030222E330E0AC01429FC001439F10
:10128000900D529F900D11249093B2018093B10163
:1012900028C086EF91E068E143E052E022E01FC001
:1012A0008FEF91E061E070E046E050E00E9495121F
:1012B00018C080911202898386EF91E060E6AE014A
:1012C0004F5F5F4F21E00BC08091B6018093B0016A
:1012D00008C086EF91E06FEF40E050E020E00E9410
:1012E00020120F90CF91DF911F910F91EF900895F1
:1012F000AB9AA39A8FEF91E061E070E046E050E096
:101300000E9485128091FF01883421F480910002AF
:101310008130C1F088E48093FF0181E08093000276
:101320008EE1809301028AEF809302021092040200
:10133000109203028FEF91E061E070E046E050E030
:101340000E949512F89485E092E06091010240912C
:1013500002020E943D10899A80E190E80E94C40632
:10136000929A81E085BF80E48BBF8B9A939A1FBCD1
:101370008CE18EBD82EE94E097BD86BD89B7806119
:1013800089BF8AE092E00E9459112DE088E190E047
:101390000FB6F894A89581BD0FBE21BD789408952D
:1013A000EF92FF920F931F93DF93CF930F92CDB7DE
:1013B000DEB70E94780988EE93E020E931E0F90178
:1013C0003197F1F70197D9F785E092E00E944D0D32
:1013D0000E94A10785E092E06EE141E420E630E062
:1013E0000FEF0E941C110E943D0780910302909113
:1013F000040222E330E0AC01429FC001439F900D04
:10140000529F900D11249093B2018093B1017E01FF
:101410000894E11CF11C02E310E0A8950EC00E94A4
:10142000D906682F86EF91E043EB51E00E94C81186
:10143000882311F00E94CA07A8950E9432078823CA
:1014400071F78091AF01882341F31092AF0186EFCD
:1014500091E00E94BC118AE092E00E946C118091A0
:1014600013028983882301F186EF91E061E6A701E9
:1014700021E00E9420128091B1019091B201892B4C
:1014800019F485B5806285BD8091030290910402B4
:101490009C01209FC001219F900D309F900D112431
:1014A0009093B2018093B101809103029091040264
:1014B000181619060CF0B1CF8091B1019091B201CC
:1014C000892B09F4AACF8091B1019091B2010197C3
:1014D0009093B2018093B1018091B1019091B201DA
:1014E000892B09F09ACF85B58F7D85BD979895CFCB
:1014F000FC0110828FEF818382E084838FE99AE080
:10150000938382830895FC0110828FEF818382E0B0
:1015100084838FE99AE09383828308950895EF92FC
:10152000FF920F931F93CF93DF93DC01862F80529E
:10153000833608F0A4C085E0689FC00111248A5951
:1015400090401296ED91FC911397E80FF91F40E03F
:1015500050E0849191E0E92EF12C082F10E03196B3
:101560008491C82FD0E0319684913297682F70E033
:10157000C701042E02C0880F991F0A94E2F7282F92
:1015800030E0C90180239123892B11F08C9103C095
:1015900011968C911197AE9A8BBBAD98AD9ACE01F6
:1015A00082239323892B11F08C9103C011968C9187
:1015B0001197AE9A8BBBAD98AD9A26233723232B78
:1015C00011F08C9103C011968C911197AE9A8BBB40
:1015D000AD98AD9A4F5F5F4F4730510549F6119670
:1015E0006C911197AE9A6BBBAD98AD9AAE9A6BBBEE
:1015F000AD98AD9AAE9A6BBBAD98AD9A40E050E015
:101600003396849101E010E0C82FD0E031968491A8
:10161000E82FF0E0C801042E02C0880F991F0A9439
:10162000E2F7282F30E0C9018C239D23892B11F488
:10163000862F01C08C91AE9A8BBBAD98AD9A2E23AC
:101640003F23232B11F4862F01C08C91AE9A8BBBC4
:10165000AD98AD9AAE9A6BBBAD98AD9A4F5F5F4FA8
:1016600047305105B9F6AE9A6BBBAD98AD9AAE9ABC
:101670006BBBAD98AD9AAE9A6BBBAD98AD9A80E05E
:1016800090E0DF91CF911F910F91FF90EF9008951F
:1016900008950895AE986BBBAD98AD9A0895AE9A33
:1016A0006BBBAD98AD9A0895FC0184818617D1F08B
:1016B000AE988CEB8BBBAD98AD9A662319F4AE9ABD
:1016C00086E002C0AE9A82E08BBBAD98AD9AAE9A2E
:1016D00081E08BBBAD98AD9AAE9A82E08BBBAD98A2
:1016E000AD9A64830895EF92FF920F931F93F62EA5
:1016F000E42E122F621711F460E003C0401719F4B2
:1017000061E00E94540BAE9885E18BBBAD98AD9A19
:10171000AE9AFBBAAD98AD9AF11609F41F5FAE9A76
:101720001BBBAD98AD9AAE9885E78BBBAD98AD9AD3
:10173000AE9AEBBAAD98AD9AE01609F40F5FAE9A87
:101740000BBBAD98AD9A1F910F91FF90EF9008954C
:101750003F924F925F926F927F928F929F92AF9241
:10176000BF92CF92DF92EF92FF920F931F93DF937E
:10177000CF9300D00F92CDB7DEB75C01E62F742E69
:10178000102FFE2C205A822F63E00E947312682EC5
:10179000482F50E04A010894811C911CCA01880F0F
:1017A000991F860DF0EA3F2E380E7FE9472E480E2E
:1017B000822F0E947312592E2E2F205A822F63E0FF
:1017C0000E947312E82E822F0E947312992321F433
:1017D00082E0581609F46DC0CE2CDD24A4014C190A
:1017E0005D0941305105E9F5DE011196EEE8F0E0C2
:1017F00083E001900D928150E1F706C0F901E90FF5
:10180000F11DF0829F5F03C09E012F5F3F4F59166D
:10181000A8F7C5016E2D472D2E2D012F0E94730BA9
:10182000AE988CE58BBBAD98AD9A79816A815B816E
:1018300040E0212F30E0271931090DC0AE9A7BBB63
:10184000AD98AD9AAE9A6BBBAD98AD9AAE9A5BBBB4
:10185000AD98AD9A4F5F842F90E02817390774F741
:1018600056C09601220F331F4230510549F42C0D0A
:101870003D1D2E55C5016E2F472D012FEF2C15C094
:101880002C0D3D1D2E55C5016E2F472D012FEF2C20
:101890000E94A80BC6010196BC01660F771F680F56
:1018A000791F6056C501472D242D0E94A80BE32DFA
:1018B00083CFC5016E2D472D262D012F0E94730B5E
:1018C000AE988CE58BBBAD98AD9A8E18910881E0EF
:1018D00090E087199109810F911D889E9001899E42
:1018E000300D989E300D112480E090E00DC0AE9A2E
:1018F000FBBAAD98AD9AAE9AFBBAAD98AD9AAE9AD6
:10190000FBBAAD98AD9A01968217930784F30F90B6
:101910000F900F90CF91DF911F910F91FF90EF905B
:10192000DF90CF90BF90AF909F908F907F906F90FF
:101930005F904F903F900895AF92BF92CF92DF9209
:10194000EF92FF920F931F93CF93DF93EC01F62E4C
:10195000C42ED22EA02EBE2C10E0D40E0AC0CE0172
:101960006F2D4C2D2F2D0D2DE8800E94A80BFA0C09
:101970001F5F1B15A0F3DF91CF911F910F91FF9077
:10198000EF90DF90CF90BF90AF900895AF92BF924D
:10199000CF92DF92EF92FF920F931F93CF93DF933B
:1019A000EC01C62EF42ED22EA02EBE2C10E0D60EA8
:1019B0000AC0CE016C2D4F2D2D2D0F2DE8800E94D9
:1019C000A80BFA0C1F5F1B15A0F3DF91CF911F919D
:1019D0000F91FF90EF90DF90CF90BF90AF90089560
:1019E000EF920F93FC01042F260FE0800E94A80BBA
:1019F0000F91EF900895EF920F93FC01362F022F75
:101A0000040F232FE0800E94A80B0F91EF90089500
:101A1000CF92DF92EF92FF920F931F937C01D62E0D
:101A2000142FC22E202F0E94FB0C6C2D6D0DC701B0
:101A3000412F202F0E94FB0CC7016D2D412F2C2D13
:101A40000E94F00C010FC7016D2D402F2C2D0E941C
:101A5000F00C1F910F91FF90EF90DF90CF900895C1
:101A6000EF920F93260F040F0E94A80B0F91EF9097
:101A70000895EF920F93FC01822F90E08770907091
:101A8000892B41F0CF01642F422F20E000E0E1805C
:101A90000E94300D0F91EF900895EF920F93FC018B
:101AA00060E040E02EE90FE7E1800E94A80B0F9173
:101AB000EF900895EF92FF920F931F93342F122F00
:101AC000F02E262F2F5D605E3F5F032F0E94730B69
:101AD000AE988CE58BBBAD98AD9AAE9A1BBBAD981A
:101AE000AD9AAE9AFBBAAD98AD9AAE9AEBBAAD98F4
:101AF000AD9A1F910F91FF90EF9008950F93FC0105
:101B0000862F63E00E947312382F822F0E94731277
:101B1000282FCF01632F0E94730B0F910895EF922E
:101B2000FF920F93DF93CF9300D00F92CDB7DEB724
:101B30007C01362F042F422FDE011196E1E9F0E0FF
:101B400083E001900D928150E1F7232F205A822FDC
:101B500063E00E947312FE01E90FF11D41833D59BC
:101B6000C701622F402F232F0F5F0E947E0DAE987A
:101B70008CE58BBBAD98AD9A8981AE9A8BBBAD9845
:101B8000AD9A8A81AE9A8BBBAD98AD9A8B81AE9A95
:101B90008BBBAD98AD9A0F900F900F90CF91DF91C6
:101BA0000F91FF90EF9008952F923F924F925F9286
:101BB0006F927F928F929F92AF92BF92CF92DF925D
:101BC000EF92FF920F931F93DF93CF9300D000D03B
:101BD000CDB7DEB79C838B83F62E542E2A838E2DB1
:101BE00090E0880F991F909581959F4F23E0A22E3A
:101BF000B12CA80EB91E6E2C640E8983D82ED00E7F
:101C00008B819C81462D2D2D0E94FB0C1A811F0D6E
:101C10008B819C81612F462D2D2D0E94FB0C7E2CEB
:101C20007F0C312E3E18202E250C422C4E18872C6E
:101C3000932CC42CDD24162D1E198B819C81682DBC
:101C4000412FFC0120810E948F0DF72CFE18062DDC
:101C50000D198B819C816F2D402FFC0120810E94EA
:101C60008F0D8B819C81692D412FFC0120810E9469
:101C70008F0D132D1E0D8B819C81612F402FFC0138
:101C800020810E948F0D042D0E0D8B819C81692D6A
:101C9000402FFC0120810E948F0D8B819C81612F40
:101CA0004C2DFC0120810E948F0D8B819C81682D21
:101CB000402FFC0120810E948F0D8B819C816F2D14
:101CC0004C2DFC0120810E948F0D8D2D90E0B7FEE0
:101CD0000BC026E030E0A20EB31E880F991F880FBC
:101CE000991FA80EB91E0DC0EAE0F0E0AE0EBF1EAF
:101CF0008E199109880F991F880F991FA80EB91E78
:101D0000EA94D3948A949394C394ED1408F093CFF7
:101D10001981FA811F0F8B819C81672D452D212F01
:101D20000E94F00C8B819C81672D422D212F0E94F7
:101D3000F00C0F900F900F900F90CF91DF911F91AB
:101D40000F91FF90EF90DF90CF90BF90AF909F905A
:101D50008F907F906F905F904F903F902F9008955D
:101D6000EF920F931F93E22E022F10E0000F111F2E
:101D7000621B421B202F0E94D40D1F910F91EF90E8
:101D800008954F925F926F927F928F929F92AF923F
:101D9000BF92CF92DF92EF92FF920F931F93DF9348
:101DA000CF9300D00F92CDB7DEB75C01F22E242F77
:101DB00030E0802F90E0041720F4F901E81BF90BC4
:101DC00003C0FC01E21BF30B262F30E08F2D90E0C7
:101DD000F61628F4D901A81BB90BCD0102C0821B4D
:101DE000930B66248E179F0744F466246394842F14
:101DF000462F682F802F0F2DF82EF61630F48F2DDA
:101E0000F62E682F802F042F482F7F2C761A40172C
:101E100028F4802E841A401730F002C0842E801AD5
:101E200099249A9402C099249394D72CD694162F6F
:101E3000C42E2E010894411C511C31C0D8186620B4
:101E400041F0C5016C2D412FF50120810E948F0DBD
:101E500021C0812F63E00E947312F201E90FF11D8E
:101E6000D5018C918083923021F01F1511F0D7FE9F
:101E700015C0812F63E00E947312682FC5014C2D9D
:101E800029810A81EB800E945A0DF50181818B83A3
:101E90008A838983D7FE02C0C90CD70C1F5FF11655
:101EA00068F60F900F900F90CF91DF911F910F91D7
:101EB000FF90EF90DF90CF90BF90AF909F908F906A
:101EC0007F906F905F904F9008955F926F927F9296
:101ED0008F929F92AF92BF92CF92DF92EF92FF923A
:101EE0000F931F93CF93DF935C01562EC42E122FB6
:101EF000822F90E0C1E0D0E0C81BD90B880F991F5A
:101F000066247724681A790A421B022F0C0DC5013A
:101F1000252D0E94C10ED12EEE2461E0862E912C3B
:101F200036C0D7FD07C0DA9482E090E0680E791ED3
:101F3000C60DD71DE39482E090E0880E991EC80D6F
:101F4000D91D1D2D1C0D2E2D250DFC2CFD18C50198
:101F5000622F412F0F2D0E94C10E252D2E19C50174
:101F6000622F412F0E94C10E1E2D1C0D2D2D250DFF
:101F7000FC2CFE18C501622F412F0F2D0E94C10EAF
:101F8000252D2D19C501622F412F0E94C10EED1480
:101F900040F2DF91CF911F910F91FF90EF90DF9072
:101FA000CF90BF90AF909F908F907F906F905F90F9
:101FB0000895BF92CF92DF92EF92FF920F931F93FB
:101FC000CF93DF93EC01142FF22E9B012F5F3F4F35
:101FD000FB01B49069010894C11CD11CF901E49083
:101FE000CE0161E00E94540B812F63E00E947312C6
:101FF00093E0899F602D1124615A262F2B0D0F2D00
:1020000001500E0DCE016F5F4F2D0E947E0DAE98D8
:102010008CE58BBBAD98AD9AEB9CB001112440E0F0
:1020200050E01EC0F601849120E030E010C090E046
:1020300080FF02C0E88101C0E981AE9AEBBBAD9898
:10204000AD9A959587952F5F3F4F4F5F5F4F283033
:10205000310518F44617570750F30894C11CD11CDA
:1020600046175707F8F2DF91CF911F910F91FF901C
:10207000EF90DF90CF90BF9008950F931F93CF9371
:10208000DF93EC0184B3806F84BB85B3806F85BB25
:102090008F9A97988CE685BD43BD84EF91E020E947
:1020A00031E0F9013197F1F70197D9F7AF988EE553
:1020B00091E020E931E0F9013197F1F70197D9F783
:1020C000AF9A00E020E931E008C0F9013197F1F75B
:1020D0000197D9F70F5F043019F084EC99E0F5CF40
:1020E0008FEF8ABBAE9810E31BBBAD98AD9AAE984C
:1020F00084E98BBBAD98AD9AAE9881ED8BBBAD9862
:10210000AD9AAE9890E29BBBAD98AD9AAE9A88E03E
:102110008BBBAD98AD9AE0E2FEE43197F1F7AE9853
:102120009BBBAD98AD9AAE9A8BE08BBBAD98AD9A48
:10213000AE9881E88BBBAD98AD9AAE9A6BBBAD986B
:10214000AD9A62956695669563706460AE9A6BBB56
:10215000AD98AD9AAE988AEC8BBBAD98AD9AAE9A1D
:102160000BBBAD98AD9AAE9A8FE18BBBAD98AD9A93
:10217000AE9A1BBAAD98AD9AAE9886EA8BBBAD9875
:10218000AD9AAE988BEB8BBBAD98AD9AAE9A81E0D1
:102190008BBBAD98AD9ACE0161E00E94540BAE9816
:1021A00081E38BBBAD98AD9AAE9882E38BBBAD98C3
:1021B000AD9AAE980BBBAD98AD9AAE9A1BBAAD98DE
:1021C000AD9AAE9A82E08BBBAD98AD9AAE981BBB30
:1021D000AD98AD9ACE016DE540E02EEF00E80E948B
:1021E0007E0DAE988CE58BBBAD98AD9A898120E0D1
:1021F00030E0AE9A8BBBAD98AD9A2F5F3F4F91E523
:1022000020343907B1F7AE988FEA8BBBAD98AD9A01
:10221000DF91CF911F910F910895109205028FEFDA
:102220008093060282E0809309028FE99AE09093FE
:102230000802809307020895DF92EF92FF920F93B6
:102240001F93CF93DF937C01162FD42EE90107FF54
:1022500007C0F90101900020E9F731970E2F021B0A
:10226000C70160E00E94540B115A86E00802C001C9
:102270001124212F280FC7011F5F612F4D2D37E03B
:10228000D30E0D2D0E947E0DAE988CE58BBBAD98C4
:10229000AD9A04C02196C7010E948F0A6881662307
:1022A000C9F7DF91CF911F910F91FF90EF90DF90D1
:1022B0000895AC0187B3807C87BB88B38F6388BBEC
:1022C00020E030E0FA01E20FF31F10822F5F3F4F52
:1022D00028303105B9F70895FF920F931F93DC0161
:1022E00036B33F7318961C92189719961C9219973B
:1022F000FC0140E050E061E070E012E083E0F82E85
:1023000001E0CB01042E02C0880F991F0A94E2F766
:10231000982F282F23238081882321F4222311F54D
:10232000008320C0813021F42223D9F010821AC00A
:10233000823051F42111F08218968C911897892BD4
:1023400018968C9318970EC0833061F4222349F0BD
:10235000108219968C911997892B19968C9319973D
:1023600001C010834F5F5F4F31964830510549F6E9
:102370001F910F91FF900895FC018581823318F41D
:1023800085818F5F85838581823308F0128208956D
:10239000FC01DA0115828281823021F1833030F430
:1023A000882361F0813009F048C010C0843031F1D9
:1023B0008430D8F0853009F040C037C06332E9F589
:1023C00082818F5F82831382148237C06230A0F1D2
:1023D000633420F462506C936E5F09C085E08283A1
:1023E0006C932BC011966C9302C012966C938381F0
:1023F000860F838382818F5F82831FC094818C913B
:10240000981750F4A90FB11D13966C939F5F948396
:102410008381860F838311C08E5F8C93128220E0AC
:102420008381861759F421E009C084819C918F5FD4
:1024300084838150891709F4128220E0822F089545
:10244000BF92CF92DF92EF92FF920F931F93CF93A1
:10245000DF936C01B62EF42EE52E122FDC011696BA
:10246000ED91FC91179783E20995F60100850E5FC7
:102470000B0D010F0680F781E02D812F8E5F0995EE
:10248000D6011696ED91FC91179718968C91189796
:102490008F5F18968C9381500995D6011696ED9111
:1024A000FC9117978B2D09952F2D3E2DC901EC011D
:1024B0007C01E10EF11C03C08991080F0995D6013A
:1024C0001696ED91FC911797CE15DF05A8F3802F96
:1024D0000995DF91CF911F910F91FF90EF90DF90C1
:1024E000CF90BF900895991B79E004C0991F96176B
:1024F00008F0961B881F7A95C9F780950895EE0F0E
:10250000FF1F0590F491E02D0994DC01CB01FC0143
:10251000E199FECF06C0FFBBEEBBE09A31960DB24B
:102520000D9241505040B8F70895DC01CB0103C033
:102530002D910E94A01241505040D0F70895262FAF
:10254000E199FECF9FBB8EBB2DBB0FB6F894E29AEC
:0C255000E19A0FBE01960895F894FFCFA9
:10255C0053797374656D20426F6F74696E672E2E9C
:10256C002E005400D5037B041F05BA054C06D50676
:10257C004C07E7076C08100929094009E009FFFF1F
:0A258C00FFFFFFFF00000000201217
:00000001FF
